:020000040800F2
:10800000B8730020D18000083D2C010869030108E5
:108010000000000000000000000000000000000060
:1080200000000000000000000000000055470108AB
:108030000000000000000000653E0108D94701086B
:10804000E3800008E3800008E3800008E380000884
:10805000E3800008E3800008E3800008E380000874
:108060004994010879940008E38000085D940008B1
:10807000E3800008E3800008E3800008E380000854
:10808000E3800008E3800008E3800008E380000844
:10809000E3800008E3800008E3800008E380000834
:1080A000E3800008E3800008E3800008E380000824
:1080B000E380000829650108E3800008034885463D
:1080C00000F0A4FA0048004739D50108B873002031
:1080D0000448804704480047FEE7FEE7FEE7FEE766
:1080E000FEE7FEE70D490108BD800008F0B51FB4AA
:1080F0000646002082B005464024019100901BE016
:10810000019922460F46304600F0A8F8049A059BD4
:10811000801A994110D310461946224600F08EF875
:10812000361A8F410197224601200021009F00F05E
:1081300085F838184D4100902046641E0028DFDC89
:10814000019B00982946324607B0F0BD03460B4319
:108150009B0703D009E008C9121F08C0042AFAD2FD
:1081600003E00B780370401C491C521EF9D2704783
:10817000D2B201E00270401C491EFBD270470022BF
:10818000F6E710B513460A4604461946FFF7F0FF16
:10819000204610BD30B504460020034600E05B1CBD
:1081A000934203D2E05CCD5C401BF8D030BD70B58B
:1081B0000446002903D000202022012310E00028DB
:1081C00001D00020C043C046C0460DE02546D54042
:1081D0008D4205D30D469540641B1D4695404019C0
:1081E0001546521E002DF1DC214670BD70B50025EC
:1081F00004462E46002911D0002C01DA0125444204
:10820000002901DA012649422046FFF7D0FFB54296
:1082100000D04042002D00D0494270BD002C02DA4F
:108220000121C90702E0002C00DD03490846C046D1
:10823000C046214670BD0000FFFFFF7F10B5202A19
:1082400004DB0146203A9140002010BD91402023DC
:108250009C1A0346E3401943904010BD10B5202AF4
:1082600004DB0846203AD040002110BD0B46D34025
:10827000D0402024A21A91400843194610BD0000A6
:10828000F0B507460846584087B0C00F0490480034
:108290000E46590040084908BC1A884105D23846A4
:1082A00031461E4617460B4602465800400810430A
:1082B0004CD0300D039040055900400D490D0590FC
:1082C000401A0290402872DA18030121000B0905B8
:1082D0000843019004980092002805D00199524269
:1082E0000020884100920190029840210A1A0199C9
:1082F0000098FFF7A3FF05460C466B4607CB00F03E
:108300009DF9C0197141039A0E0D0023D7175640ED
:108310001A467A40164344D0049A002A2DD0029A75
:10832000012A039A15DC1205C01A9141012636056F
:10833000001C7141D20F059ED20700930192029654
:108340002A46234600F09AF907B0F0BD3846314678
:10835000FAE71605224A0F46B218C01AB7410121A2
:108360000905001C4F4100187F411146181879413A
:10837000E20F10436D19644113E0E2076D081543E5
:108380006408C2071443039A01261205C01A9141DA
:108390003605001C7141CE07400830434908C0181B
:1083A00051412A46234600F05CF9CDE7FFE70498E7
:1083B00001224000C117121A00238B410498314654
:1083C000C417381AA141EEE730B40124E407634032
:1083D00030BC55E730B40124E407614030BC4FE7BE
:1083E0000000E0FFF0B51FB488B00B990998002495
:1083F00048400999C00F490049080991C0070B99E5
:108400000090490049080B9109990898A64608432D
:108410001CD00B990A98084318D0099801244000F1
:10842000420D4800410D099824050003000B20432C
:1084300009900B980003000B20430B9050181C4927
:108440004018002201901446104605E00020014625
:108450000DB0F0BD032801DA034600E003239C467B
:10846000C11A0AAE0AE05F0008ADED5B4F00F75B92
:108470007D430027AA187C41491C5B1E6145F2DD43
:10848000410004AB5A522104120C0A43240C401C34
:108490000828DFDB01980290009970460191009056
:1084A000059B049A0799069800F0E8F8D0E70000C9
:1084B0000DFCFFFFF0B50C465C4085B0E40FE4070F
:1084C00003944C000026640859009446490802466B
:1084D0000296224321D062460A431ED06200570D05
:1084E0004A000E032303550D012402462C4924059E
:1084F000781B1B0B360B4018234326436146009024
:108500001C46501AB44103D30098401C009002E06E
:10851000921800985B41002803DA0020014605B05C
:10852000F0BD0020012109050746864611E064469A
:108530001D46141BB54106D36546521BB341744614
:1085400007430C43A646CD07400849082843921824
:108550005B4105460D43EAD11046184313D06046EF
:10856000194650407140084306D06046101AB34186
:1085700006D20122002306E000220123DB0702E0ED
:108580000122D2435310009874460105381C614102
:10859000029C039D0019694100F063F8BFE70000E9
:1085A000FD0300004A0009030123090B1B051943C1
:1085B0000A4B10B5520D9A4202DA0020014610BD56
:1085C000064B34339A4203DC9A1AFFF747FE10BD7C
:1085D000034BD218FFF732FE10BD0000FF0300006E
:1085E000CDFBFFFF10B5002904DB0124E407404266
:1085F0008C412146002B04DB1C460123DB07524241
:10860000A341994200D1904210BD00001CB5094819
:1086100000900948019005460126009C05E0E368AA
:1086200007CC33430C3C98471034AC42F7D3FFF7E8
:1086300049FD0000305803085058030810B5202A9F
:1086400006DBCB170846203A1041C1170B4306E062
:108650000B461341D0402024A21A914008431946EA
:1086600010BD10B5002B08DA0024401C614192189F
:108670005B411A4301D14008400010BDF0B51FB462
:1086800082B005460C0003D008462BF0AFFE02E096
:108690002BF0ACFE20300246009021462846FFF722
:1086A000CDFD049B059A04460F4618431143084329
:1086B00014D0184610431BD0009840210A1A1846BF
:1086C0000599FFF7CBFD05460E46009A05990498DB
:1086D000FFF7B4FD084305D0012004E020463946E9
:1086E00007B0F0BD0020C11705430E432C433743AC
:1086F00000990E986305401A7905E40A00220C439C
:10870000FD0A0A3002D500200146E9E701051019EB
:1087100069410C9C0D9D00196941FFF7A2FFDFE73D
:1087200070B58C180578401C6B075B0F01D103787E
:10873000401C2A1106D10278401C03E006780E7016
:10874000401C491C5B1EF9D12B0705D40023521E87
:108750000DD40B70491CFAE70378401CCB1A921C0D
:1087600003E01D780D70491C5B1C521EF9D5A14217
:10877000D8D3002070BD80B584B002900298006804
:108780000AF01AF9002835D0FFE7029800680AF0CD
:10879000F0F8002805D1FFE7029800680AF062F9B6
:1087A000FFE703F0A5FC0190FFE7029800688068EE
:1087B000400700281DD5FFE703F09AFC0199401AF5
:1087C000032815D3FFE70298006880684007002857
:1087D0000DD5FFE70299886D102210438865029A33
:1087E000D16D01200143D16503A9087006E0FFE7C0
:1087F000DBE7FFE703A900200870FFE703A8007884
:1088000004B080BD80B588B00690059104A9002011
:1088100008800390029001900599088006980190C5
:1088200006984949884205D1FFE7012002901E4879
:10883000039005E0002002901A4908610390FFE7C9
:10884000184801A901F0CEFE002804D0FFE707A9CF
:108850000120087022E0134802F01AFC002804D01E
:10886000FFE707A90120087018E0FFE70D48012184
:1088700002F06AFB002809D1FFE70A4802F076F906
:1088800004A9088004980599088000E0EEE70548EF
:1088900002F054FC07A900200870FFE707A8007841
:1088A00008B080BD9406002004FFFF0780B582B0A9
:1088B000014601A8018013490988008848431249EC
:1088C000FFF794FC0090009910480180008802B0E6
:1088D00080BDC04680B582B001A90880FC480088F0
:1088E000098841432E2048430A21FFF77FFC0649AF
:1088F000FFF77CFC0090009904480180008802B0DA
:1089000080BDC04626080020FF0F0000EA090020B5
:1089100080B584B00390039900200880F14801A934
:10892000FFF770FF014602A801700078002807D108
:10893000FFE701A80088FFF7CDFF03990880FFE754
:1089400002A8007804B080BD0000024480B584B065
:108950000290029800680AF00CF8009002980068F3
:108960000AF010F800284BD0FFE70098002847D104
:10897000FFE702980068806805210840012809D1B6
:10898000FFE70298006809F083FF0298016803205E
:1089900008600CE00299886D102210438865029AE5
:1089A000D16D01200143D16503A908702CE003F0CB
:1089B0009FFB0190FFE7029800688068C0070028CD
:1089C0001DD0FFE703F094FB0199401A032815D34B
:1089D000FFE7029800688068C00700280DD0FFE715
:1089E0000299886D102210438865029AD16D01208A
:1089F0000143D16503A9087006E0FFE7DBE7FFE765
:108A000003A900200870FFE703A8007804B080BD28
:108A100080B584B00290002000900298006809F0B0
:108A2000B1FF00286BD1FFE70298006880683849E1
:108A300008420DD0FFE70299886D10221043886527
:108A4000029AD16D01200143D16503A908705AE053
:108A50000298006809F040FF2E4809F06CFF000200
:108A6000002811D5FFE72C4800682C49FFF79FFB31
:108A7000401C0090FFE70098002804D0FFE7009812
:108A8000401E0090F7E7FFE70298407E012835D0AE
:108A9000FFE703F02DFB0190FFE7029800680068F4
:108AA000C007002829D1FFE70298006809F06AFF93
:108AB000002805D1FFE70298006809F00DFFFFE7E5
:108AC00003F016FB0199401A032815D3FFE702981B
:108AD00000680068C00700280DD1FFE70299886D83
:108AE000102210438865029AD16D01200143D1659F
:108AF00003A9087007E0FFE7CFE7FFE7FFE703A957
:108B000000200870FFE703A8007804B080BDC046CD
:108B1000170000800827014078030020400D030063
:108B2000B0B58AB008A903200870FFE76548019036
:108B3000654901600123D9074160041D00220292AA
:108B40008260C26004254561027642768276C36106
:108B50002277426282622C2402551B0303630323A3
:108B60004363072383633C23C254C264016102F060
:108B700005F8002804D0FFE709A9012008709CE04F
:108B8000504801F059FC002804D0FFE709A9012052
:108B9000087092E032200BF055FF0020069005A9E6
:108BA0000870FFE705A80078032815DCFFE705201B
:108BB0000BF048FF4B4807A9FFF724FE002801D01F
:108BC000FFE7EFE707A80188069840180690059888
:108BD000401C05A90870E5E706988008069039480A
:108BE0000021016101F0CAFF002804D0FFE709A9B4
:108BF0000120087061E0334801F01EFC002804D019
:108C0000FFE709A90120087057E00020049003A99C
:108C10000870FFE703A800787F2815DCFFE7052030
:108C20000BF010FF012007A9FFF7ECFD002801D091
:108C3000FFE7EFE707A8018804984018049003981D
:108C4000401C03A90870E5E70498C0090490049942
:108C50001E48FFF7ACFA9B4908800898411E08A8F7
:108C600001700078002804D1FFE709A901200870ED
:108C700023E0944800881749884206DBFFE79148C3
:108C800000881549884204DBFFE70E4801F0E6FE44
:108C90004CE706A80088FFF71DFE01460F4801803B
:108CA00000880F49884204DCFFE709A90220087008
:108CB00003E009A900200870FFE709A800780AB0BE
:108CC000B0BDC0469406002000240140378B4C0004
:108CD000260800204E0C00007B0D00000407002039
:108CE000AF3600000000024480B584B003900399C1
:108CF000002008800A4801A9FFF784FD014602A868
:108D000001700078002807D1FFE701A80088FFF76D
:108D1000CDFD03990880FFE702A8007804B080BD6C
:108D20000200000480B58B49094808600948486082
:108D3000094888600948C8600948086109484861CD
:108D4000094888610948C861FFF7EAFE80BDC0464E
:108D5000598F0008E98D0008958F0008558E00088E
:108D6000E98C000811890008718D0008AD8D00089C
:108D700080B584B003900399002008800A4801A9B7
:108D8000FFF740FD014602A801700078002807D1D6
:108D9000FFE701A80088FFF789FD03990880FFE736
:108DA00002A8007804B080BD0400000880B584B03B
:108DB00003900399002008800A4801A9FFF722FDCB
:108DC000014602A801700078002807D1FFE701A83A
:108DD0000088FFF76BFD03990880FFE702A8007881
:108DE00004B080BD0800000C80B584B003900399E6
:108DF00000200880164801A9FFF704FD014602A8DB
:108E00000170007800281FD1FFE72D480078032863
:108E100012D1FFE72B48008801A9098841430320AC
:108E200048432949FFF7E2F9009000982749088054
:108E300000980399088006E001A80088FFF74AFD22
:108E400003990880FFE7FFE702A8007804B080BD1F
:108E50008000001C80B584B0039003990020088036
:108E6000164801A9FFF7CEFC014602A80170007860
:108E700000281FD1FFE712480078032812D1FFE72E
:108E80001048008801A909884143032048430E493E
:108E9000FFF7ACF9009000980C49088000980399FE
:108EA000088006E001A80088FFF714FD03990880F8
:108EB000FFE7FFE702A8007804B080BD00020024AD
:108EC0003806002026080020FF0F0000EA090020D5
:108ED00010B588B007AC207006A8018005A80280F4
:108EE000049306980599401802A908800698059AE7
:108EF000821A01A8028000880988884204DDFFE701
:108F000001A900200880FFE707A800788100114828
:108F1000415804988847014603A80170007800284A
:108F200013D1FFE70498008802A90988884207DC6A
:108F3000FFE70498008801A90988884204DAFFE75E
:108F400003A901200870FFE7FFE703A8007808B035
:108F500010BDC0467406002080B584B0039003990C
:108F6000002008800A4801A9FFF74CFC014602A82E
:108F700001700078002807D1FFE701A80088FFF7FB
:108F8000A9FC03990880FFE702A8007804B080BD1F
:108F90004000001880B584B0039003990020088039
:108FA0000A4801A9FFF72EFC014602A801700078CB
:108FB000002807D1FFE701A80088FFF78BFC039981
:108FC0000880FFE702A8007804B080BD00040028F4
:108FD00080B582B001A908702B4865218900405AEC
:108FE000C005002801D5FFE725E06946002008708C
:108FF000FFE76846007801A9097888421BDAFFE795
:109000002148B7214900405A8007002804D4FFE7CF
:109010001E4902200860FFE750200BF013FD2C4989
:109020000220086014200BF00DFDFFE70098401CA3
:1090300069460870DDE702B080BDC04624490220C1
:1090400008602049002008707047C04680B582B093
:1090500001A908800C48B7214900405A8007002820
:1090600004D4FFE7094902200860FFE701A800884F
:109070001649086003F03CF81349086011490120C3
:10908000087002B080BDC0460000002018080050E3
:1090900080B50C480078002812D0FFE703F028F8CC
:1090A00009490968401A09490968884207D9FFE750
:1090B000044900200870064902200860FFE7FFE726
:1090C000002080BDEC090020F4090020F0090020F8
:1090D0002808005080B588B00020029007900690C4
:1090E00005900490039001210491059002200190C5
:1090F000069003900648009003A902F055FE0098E0
:109100000199029A02F0DDFF029808B080BDC046C6
:109110000008005080B58AB0034609A80370089182
:10912000079200780C214143224840180690022003
:109130000590089900200870069840788006C00EB7
:1091400000282AD1FFE709A804900078382102916D
:10915000414319480390405809F066FD029903986D
:10916000049A12785143405809F054FD049800784D
:1091700000280BD1FFE7FFE708200190022113F040
:1091800097FF019813F040FFFFE7FFE70699487843
:10919000C1221040801C487008E00698836809A826
:1091A00000780899079A98470590FFE705980AB054
:1091B00080BDC046F8060020EC07002080B50FF007
:1091C0001BFE002080BD80B50FF00EFE002080BD8C
:1091D00080B582B0019068460170019810F0F8F8EF
:1091E00002B080BD80B516480DF0F8FB80BDC046CA
:1091F00080B584B0039002A8017001A91420087002
:10920000FFE7039902A802780D480DF033FC00280F
:1092100001D1FFE710E07D20C0000BF02BFC01988E
:10922000411E01A801700078002804D1FFE702A9BF
:1092300000200870FFE7E4E702A8007804B080BDD2
:10924000FC0A002080B582B0014601A80180018897
:10925000064848432E21FEF7C9FF00900098784940
:109260000988FEF7A4FF80B202B080BDF69F00001F
:1092700080B58CB002A82421FEF781FF76482849EA
:10928000016002F0D3F8002804D0FFE70BA9012009
:10929000087040E000220392022004906E4802A968
:1092A00001F0B0FF002804D0FFE70BA901200870EF
:1092B00031E0694802A9102201F0A4FF002804D07F
:1092C000FFE70BA90120087025E0614A0021009109
:1092D000118060480180128803885F48019001F086
:1092E0006DFF0099019802F0EDF8002804D0FFE727
:1092F0000BA9012008700EE05748102102F0E2F897
:10930000002804D0FFE70BA90120087003E00BA997
:1093100000200870FFE70BA800780CB080BDC046A5
:1093200000740040264800887047C04680B584B06D
:1093300003A908804148007800280CD0FFE703A863
:1093400000883F490988884205DDFFE73C480088DE
:1093500003A90880FFE703A800883A49884204DB94
:10936000FFE703A938480880FFE7039814490880FD
:1093700014480078032810D1FFE703A80188124899
:1093800048430321FEF713FF029002982C490988F5
:10939000FEF70DFF2F49088006E009480088FFF717
:1093A00051FF2C490880FFE7294802882948038893
:1093B00029480021019101F001FF019804B080BD0E
:1093C0002407002038060020FF0F00001F480088F7
:1093D0007047C04680B582B001A908801748007860
:1093E00000280CD0FFE701A80088154909888842A9
:1093F00005DDFFE71248008801A90880FFE701A802
:1094000000881049884204DBFFE701A90E48088064
:10941000FFE701990D4801800088FFF713FF01461F
:109420000B48018002880B4803880B4800210091FB
:1094300001F0C4FE009802B080BDC046046D00205B
:1094400026080020B1360000B036000028070020B2
:109450002A070020260700201007002080B582B0D0
:10946000AC480190806D02F0D1F90198406D02F096
:10947000CDF902B080BDC04680B5024802F0C6F901
:1094800080BDC046D80D002080B582B00190019803
:109490000068174988420FD8FFE70199486C0322FA
:1094A0009043154A80188864019800780838142180
:1094B000FEF77DFE00900FE00199486C0322904377
:1094C0000C4A801888640198007808381421FEF747
:1094D0006EFEC01D0090FFE701990848C86400991E
:1094E0001F200140012088400199086502B080BD1D
:1094F000070402401C0802400008024080080240A5
:1095000082B00190019840687F2108400090009847
:109510008000084940180199486501990648886506
:109520000098411E03200140012088400199C86530
:1095300002B07047FC0802404009024084B003902A
:109540000291019200930399086DC96C48600398D9
:10955000406D002805D0FFE70399C86D896D48600C
:10956000FFE703994A6C1C20024001209040096CDF
:10957000486000980399096848600398806810283B
:1095800009D1FFE701980399096888600298039957
:109590000968C86008E00298039909688860019822
:1095A00003990968C860FFE704B0704780B58AB0C6
:1095B0009848006808A90880984800680790914971
:1095C0000878401C0870FFE78E4800788E490978BB
:1095D000884237DDFFE702F08BFD4D490860FFE769
:1095E0008F48007800280CD0FFE74A4805F069FA58
:1095F000014606A801700078012801D1FFE720E0AC
:109600000BE0EA4802F057FE014606A80170007818
:10961000202801D1FFE714E0FFE702F069FD3C4993
:109620000968401A41280BD3FFE776490878401EA5
:10963000087076490878401C08700020099063E0A3
:10964000CEE7C1E77048007871490978884248DA66
:10965000FFE76D4801780122114005A801706E49AD
:109660004B686E490B60007883020868C018086078
:1096700068490868920280180860694800780028E4
:1096800013D0FFE763480068644909680122920229
:109690000AF0A0FE002807D0FFE70AF029FE5B4988
:1096A0000878401C0870FFE71AE004A8A021018098
:1096B0000188584802885948006801239B02019399
:1096C0000090BA48022303F0FDF8002807D0FFE716
:1096D00000F02CF94D490878401C0870FFE7FFE7BF
:1096E000FFE7079801210391890200F09BF8039A94
:1096F00008A800880799520200F0EEF943490020BB
:10970000087007980990FFE709980AB080BDC04625
:10971000180A00202808002081B03C480078022860
:1097200004DCFFE769460120087003E06946002079
:109730000870FFE76846007801B0704780B586B0D2
:1097400004AA108003A801802E4A002111702E4A1D
:1097500011702E4A11700188490A2D4A1170008833
:10976000C005002805D0FFE729490878401C08708B
:10977000FFE704A8008840002649086026484068A2
:109780002649086026480078002814D0FFE72148C1
:10979000006822490968012292020AF01BFE002893
:1097A00008D0FFE719490878401C087005A9012076
:1097B000087023E01EE0174802680121CB02D2188E
:1097C000026002881548006889020191009077487C
:1097D000A021022303F076F800280AD0FFE700F06A
:1097E000A5F80A490878401C087005A901200870EE
:1097F00004E0FFE705A900200870FFE705A800784E
:1098000006B080BD090A0020080A00200A0A0020CC
:109810000B0A0020000A002000000020040A00209B
:109820003B06002086B0059004A801806C48039098
:1098300002A900200880FFE702A8008804A909887F
:1098400088422ADAFFE7059802A90988405C01A945
:109850000870694603200870FFE7002168464056FB
:1098600000280FD4FFE70398002269468956415C1F
:109870000198484001A90870FFE70098401E69461A
:109880000870EAE70198059902AA12888854FFE750
:109890000298401C02A90880CEE706B07047C04677
:1098A00080B584B0014602A8017001783F484B2280
:1098B0009300142202F08CFD032803D1FFE700205F
:1098C00003902EE0012080030190FFE70198012121
:1098D000490488421AD8FFE702A80078019900F0ED
:1098E00085F80146684601700078002801D1FFE73D
:1098F0000CE068460078032803D1FFE700200390BE
:109900000FE0FFE7019840000190DFE7019806496A
:10991000884203D3FFE70020039002E00198039000
:10992000FFE7039804B080BD0100020080B51F4826
:1099300002F08BFC00F002F880BDC04680B582B01A
:109940001A4800901A4901600121C160194941601B
:1099500000210161816041618161C161016202F0A8
:10996000B1FC002804D0FFE701A90120087019E02C
:109970000E48002102F0C2FB002804D0FFE701A935
:10998000012008700EE00948002102F002FC0028C6
:1099900004D0FFE701A90120087003E001A900201D
:1099A0000870FFE701A8007802B080BD30070020F2
:1099B000005400402610C71080B5084800680849C8
:1099C000086008480268086880180860064802684D
:1099D000086880180860FFF7B1FF80BD9075FF1F11
:1099E000FC0900209475FF1F9875FF1F80B586B095
:1099F000024604A8027003910078002102AA012304
:109A000000F062F9012804D1FFE705A903200870DE
:109A10005EE004A8007803A9098801AA012300F0E8
:109A200053F9012804D1FFE705A9032008704FE08E
:109A300002A8007801A90978884245D1FFE7029879
:109A4000694608700298401C02AA107004A80078A9
:109A50000021012300F0A4FA002804D0FFE705A9A3
:109A60000120087034E004A8007803A9098801AA3D
:109A7000012300F029F9002804D0FFE705A90120FF
:109A8000087025E004A8007800216A46012300F050
:109A900087FA002804D0FFE705A90120087017E025
:109AA00002A8007801A9097888420CD1FFE704A830
:109AB00000780399491E89B201AA012300F004F934
:109AC00005A9087004E0FFE705A901200870FFE779
:109AD00005A8007806B080BD10B587B006AB188029
:109AE000059104A802804F48CF214900405A02281E
:109AF0003DD1FFE706A800884A493922D200895A99
:109B0000884233DAFFE703A900200880FFE703A8B3
:109B1000008804A90988884227DAFFE706A8008898
:109B200040493922D200895A884201DBFFE713E01D
:109B3000059903A800884200885A3B4B4343069886
:109B400043403A4843403A485843364BE324640084
:109B50001B5B18408852FFE70398401C03A908804C
:109B60000698401C06A90880D1E7FFE757E02D487A
:109B7000CF214900405A012850D1FFE706980499A7
:109B8000401801A9088006A80088302845DCFFE7B6
:109B900001A80088962840DBFFE706996820401A54
:109BA00001A9088006993020401A02A90880069968
:109BB0009520401A06A90880059809884900405A4E
:109BC0000F2108400090012804D0FFE700980228E8
:109BD00011D021E0059A02A801884B00D15A08242F
:109BE0006140D152059900884000411848880422FC
:109BF0005040488010E0059A01A801884B00D15AD6
:109C000010246140D15205990088400041184888CD
:109C1000082250404880FFE7FFE7FFE7FFE707B073
:109C200010BDC04600000020A32000005A290000FB
:109C30003719000080B586B00490039102A8028015
:109C40006846A02101700078A52804DBFFE705A97C
:109C50000120087034E0D048007800281BD0FFE7CE
:109C60000498C00A002816D0FFE70498CB49401892
:109C700004900498039902AA12880AF08DFB002828
:109C800004D1FFE701A90020087003E001A9012029
:109C90000870FFE70BE06846007804A90988039A7A
:109CA00002AB1B8800F010F801A90870FFE70398C9
:109CB00002A90988FFF7B6FD019805A90870FFE71A
:109CC00005A8007806B080BD10B58AB008AC207039
:109CD00007A80180069205A80380059804A90880BA
:109CE000FFE704A80088002843D0FFE704A8008805
:109CF0002449884205DBFFE70120400203A90880D0
:109D000003E0049803A90880FFE708A8017807A8E2
:109D10000288069803AB1B887D24A400029401935B
:109D200000901948022302F099FC002806D0FFE7B2
:109D3000FFF7FCFD09A9012008701EE008A80078C3
:109D400000F0C4F9002804D0FFE709A90120087039
:109D500013E003990798401807A9088003A8018811
:109D600006984018069003990498401A04A90880A0
:109D7000B7E709A900200870FFE709A800780AB032
:109D800010BDC046010200003007002080B58AB037
:109D90000990089107A80280099840003349096892
:109DA00040180121C902401806900798400005A9F3
:109DB0000880069809884018049003A900200870BC
:109DC00002A8A022027001A90A70007809788842CE
:109DD00009D1FFE70698089905AA1288FFF72AFF1C
:109DE00003A908702EE032480068009002A80078AD
:109DF000A22804D1FFE72F4800680090FFE70098F1
:109E00000699401A05AA1080069808991288FFF74B
:109E100011FF014603A801700078002811D1FFE767
:109E200005AA118808984018089004980099401ACB
:109E30001080009808991288FFF7FCFE03A90870AB
:109E4000FFE7FFE709A80088089907AA1288FFF72B
:109E500043FE03A800780AB080BDC04681B00090E0
:109E600000980249086001B07047C046F809002018
:109E700080B582B0A020FFF713FD01460C480160B9
:109E80000068002804D1FFE701A9012008700AE05A
:109E900007480168074A116000680749086001A97E
:109EA00000200870FFE701A8007802B080BDC0461E
:109EB0000C0A0020100A0020140A002080B58AB085
:109EC0000890079106A802803248059004A9002056
:109ED0000880FFE704A8008806A90988884228DAD4
:109EE000FFE7079804A90988405C03A9087002A944
:109EF00000200870FFE702A8007803280EDCFFE7C7
:109F0000059802A90978415C0398484003A90870A4
:109F1000FFE70298401C02A90870ECE70398079934
:109F200004AA12888854FFE70498401C04A90880FA
:109F3000D0E71948007800281AD0FFE70898C00A2F
:109F4000002815D0FFE70898144940180890089891
:109F5000079906AA12880AF09FFA002804D1FFE7A1
:109F600009A90020087011E009A9012008700DE07E
:109F700001A8A0210170007808A90988079A06ABFA
:109F80001B8800F00DF809A90870FFE709A8007800
:109F90000AB080BDFC0900203B06002000F8FFFF4E
:109FA00010B586B0044604A8047003AC2180029268
:109FB00001A90B80007800F089F8002804D0FFE7A1
:109FC00005A9012008707DE003A801883F20014019
:109FD00068460180008800282FD0FFE700994020C4
:109FE000411A68460180008801A90988884204DD79
:109FF000FFE7019869460880FFE704A8007803A9F5
:10A000000988029A6B461B8800F0B0F8002804D03B
:10A01000FFE705A90120087054E000990398401853
:10A0200003A90880684601880298401802900099A8
:10A030000198401A01A90880FFE701A8008880095B
:10A0400069460880FFE76846008800281BD0FFE7C4
:10A0500004A8007803A90988029A402300F086F832
:10A06000002804D0FFE705A9012008702AE0039822
:10A07000403003A908800298403002900098401EAA
:10A0800069460880DFE701A801883F200140684653
:10A0900001800088002811D0FFE704A8007803A9F8
:10A0A0000988029A6B461B8800F060F8002804D0EB
:10A0B000FFE705A90120087004E0FFE705A90020DB
:10A0C0000870FFE705A8007806B010BD80B582B023
:10A0D0006946087002F00CF823490860FFE73A4827
:10A0E00002F0E9F820280FD0FFE702F001F81E493E
:10A0F0000968401AFF21F631884204D3FFE701A91D
:10A10000012008702BE0EAE7FFE7684601782E4857
:10A110004B229300142202F05BF9032801D1FFE7E0
:10A12000F3E701F0E5FF10490860FFE7264802F079
:10A13000C2F820280FD0FFE701F0DAFF0A490968CA
:10A14000401AFF21F631884204D3FFE701A901201C
:10A15000087004E0EAE701A900200870FFE701A801
:10A16000007802B080BDC046180A002010B58AB041
:10A1700004931346049A0C4608A9087007A80480A3
:10A18000069305AB1A800978028806981B887D24FF
:10A19000A4000294019300900B48022302F092FC69
:10A1A000002806D0FFE7FFF7C1FB09A901200870CE
:10A1B00006E008200AF046FC09A900200870FFE725
:10A1C00009A800780AB010BD3007002080B588B01B
:10A1D00000F034F8012801D1FFE723E000210791C6
:10A1E00006A8017005AB0393197007A901910090AF
:10A1F0000D480E4A062113F095F80146039804AA6B
:10A2000011700078A5280DD1FFE706A80078022874
:10A2100008DCFFE706A80078810005484158079848
:10A220008847FFE708B080BD1C0A002029580308B2
:10A230004804002080B500F005F880BD664800782D
:10A240007047C04680B582B06448009023490160E1
:10A25000E1214902416000218160C16001610C225D
:10A2600042618161C1610162416203218162012118
:10A270004A04C2620904016305F056FE002804D0B6
:10A28000FFE701A90120087023E05448002105F0F0
:10A290007AFA002804D0FFE701A90120087018E02D
:10A2A0004E48002105F027FA002804D0FFE701A955
:10A2B000012008700DE0494805F0D6F9002804D0C7
:10A2C000FFE701A90120087003E001A90020087040
:10A2D000FFE701A8007802B080BDC046003C014005
:10A2E00080B586B0049003A8018002920499214AA7
:10A2F00011600399204A1170204A00211170354ADB
:10A300001170354A0121117004990288334805F013
:10A31000DFFE014601A801700078002817D0FFE792
:10A320002E4805F081FAFFE72C480268916908235E
:10A330001943916101688869102210438861FFE721
:10A3400025490020087005A9012008700DE0029839
:10A35000002806D0FFE7029813F0A4F805A90870BA
:10A3600003E005A900200870FFE705A8007806B003
:10A3700080BDC046F40A0020F80A0020F00A002040
:10A3800080B584B0029001A801800092114A00219A
:10A390001170114A01211170029902880F4805F0CD
:10A3A00019FF002804D0FFE703A9012008700DE081
:10A3B0000098002806D0FFE7009813F073F803A96F
:10A3C000087003E003A900200870FFE703A80078E5
:10A3D00004B080BDF10A0020F20A00205C0A0020CF
:10A3E00080B584B01048006803901048006802905F
:10A3F0000F48006801900199039840180390039852
:10A4000000280ED0FFE703980A490091891C082212
:10A4100007F0F2FC009902981231042207F0ECFCDC
:10A42000FFE704B080BDC0469075FF1F9475FF1F05
:10A430009875FF1F2404002080B588B00690002086
:10A4400004900190FFE706985421405C012804D154
:10A45000FFE707A902200870BAE0069954220120FC
:10A460008854FFE7FFE70698FEF770FA05A9087021
:10A470000698006808F08EFA002800D098E0069848
:10A48000806D0221084301210902884306998865ED
:10A4900006980068C0685049084003900698016813
:10A4A000C8684E4A1040C86000200290FFE702983A
:10A4B000072834D8FFE70698006808F024FBFFE778
:10A4C0000698006808F04EFA00281BD0FFE70498B1
:10A4D000401C049004984249884212D3FFE7069832
:10A4E000806D102108430221884306998865FFE7A3
:10A4F0000699542200208854FFE707A9012008701C
:10A5000066E0DDE70698006808F00CFA014601985D
:10A5100040180190FFE70298401C0290C7E702999B
:10A520000198FDF744FE01900698006808F0E0F9F4
:10A5300006980068019908F0A3FA0698006808F0E8
:10A54000B3F901F0D5FD0090FFE70698006808F028
:10A5500021FA00281DD0FFE701F0CAFD0099401A3A
:10A56000032815D3FFE70698006808F013FA0028BF
:10A570000DD0FFE70699886D102210438865069A72
:10A58000D16D01200143D16507A9087020E0FFE7E4
:10A59000DBE7039A06980168C8681043C86006980C
:10A5A000806D01210843022188430699886505E0F2
:10A5B0000699886D102210438865FFE7FFE706992A
:10A5C000542200208854FFE7059807A90870FFE788
:10A5D00007A8007808B080BD03800000FC7FFFFF63
:10A5E00000F2020080B59CB01A90199118A90020C1
:10A5F000087016901A9800690121C907884206D090
:10A60000FFE71A980069FB49884201D1FFE700E0A3
:10A61000FFE7FFE71A985421405C012804D1FFE7C7
:10A620001BA90220087008E21A99542201208854BC
:10A63000FFE7FFE71A98006808F0BEF9002800D08D
:10A64000E8E119984068022800D193E11A9800695E
:10A650000121C907884206D0FFE71A980069F94925
:10A66000884207D1FFE71A9800681999096808F02D
:10A67000B7F91AE11A98016E199843681F2213401E
:10A680000F229A409143159100684003002808D199
:10A69000FFE7199800681F2189060840800E149072
:10A6A000E7E019980078C007002803D0FFE70020F2
:10A6B0001390DBE0199800788007002803D5FFE7A6
:10A6C00001201290CFE0199800784007002803D5A8
:10A6D000FFE702201190C3E01998007800070028D6
:10A6E00003D5FFE703201090B7E019980078C00663
:10A6F000002803D5FFE704200F90ABE019980078FD
:10A700008006002803D5FFE705200E909FE01998EA
:10A7100000784006002803D5FFE706200D9093E05F
:10A72000199800780006002803D5FFE707200C9051
:10A7300087E019984078C007002803D0FFE7082079
:10A740000B907BE0199840788007002803D5FFE73D
:10A7500009200A906FE0199840784007002803D537
:10A76000FFE70A20099063E0199840780007002865
:10A7700003D5FFE70B20089057E019984078C006F2
:10A78000002803D5FFE70C2007904BE0199840788C
:10A790008006002803D5FFE70D2006903FE01998BA
:10A7A00040784006002803D5FFE70E20059033E0EF
:10A7B000199840780006002803D5FFE70F20049081
:10A7C00027E019988078C007002803D0FFE7102001
:10A7D00003901BE0199880788007002803D5FFE7D5
:10A7E000112002900FE019980168012082041140A5
:10A7F0001220002300939142019001D00098019013
:10A8000001980290FFE702980390FFE703980490F5
:10A81000FFE704980590FFE705980690FFE7069884
:10A820000790FFE707980890FFE708980990FFE76F
:10A8300009980A90FFE70A980B90FFE70B980C9095
:10A84000FFE70C980D90FFE70D980E90FFE70E982C
:10A850000F90FFE70F981090FFE710981190FFE717
:10A8600011981290FFE712981390FFE71398149035
:10A87000FFE715981499199A52681F231A409140BE
:10A8800008431A990866199840688008401C1A996C
:10A89000C969884208D8FFE71A980068199A516870
:10A8A000126808F0BBF8FFE7FFE71A980068199AEA
:10A8B0001168926808F0F2F81998C078000600282C
:10A8C00057D5FFE7A84808F036F8179019980068A0
:10A8D0005D49884221D1FFE717A88078000600284B
:10A8E0001BD4FFE717990120C00501439E4808F0DB
:10A8F000E9F8584800685849FDF759FC01460C2012
:10A9000048430C301690FFE71698002804D0FFE764
:10A910001698401E1690F7E72AE0199800684B49F0
:10A9200088420ED1FFE717A8C078C007002808D1D9
:10A93000FFE717990120000601438B4808F0C2F891
:10A9400015E019980068424988420ED1FFE717A820
:10A9500080784006002808D4FFE717990120800579
:10A960000143814808F0AEF800E0FFE7FFE7FFE7AA
:10A97000FFE74EE01A9800690121C907884206D016
:10A98000FFE71A9800692F49884207D1FFE71A9814
:10A9900000681999096808F031F8FFE71998C0783C
:10A9A0000006002834D5FFE76F4807F0C4FF179072
:10A9B000199800682449884208D1FFE717990120B7
:10A9C000C0058143684808F07DF820E019980068C8
:10A9D0001E49884208D1FFE71799012000068143EC
:10A9E000614808F06FF811E019980068184988422A
:10A9F0000AD101E0040000801799012080058143FD
:10AA0000594808F05FF800E0FFE7FFE7FFE7FFE7DE
:10AA1000FFE708E01A99886D20221043886518A97D
:10AA200001200870FFE7FFE71A995422002088549C
:10AA3000FFE718981BA90870FFE71BA800781CB057
:10AA400080BDC04604000080001000B0004000B887
:10AA5000002000B478030020400D030080B584B0CE
:10AA600002900298002804D1FFE703A90120087092
:10AA70006EE00299886D0222104388650298FDF706
:10AA80007AFE014601A801700078002813D1FFE783
:10AA90000298FDF75BFF014601A8017000780028CD
:10AAA00004D1FFE7029901208865FFE7029800685A
:10AAB00007F006FFFFE7029801684868264A104041
:10AAC0004860029801682548086002980168C868D3
:10AAD000234A1040C860029801680869032292075F
:10AAE00090430861029801684869072290434861D1
:10AAF00002980168086A1B4A1040086202980168BF
:10AB0000486A1040486202980168C86A1040C862EA
:10AB100002980168886A002000908862EB49086802
:10AB20007F22920490430860029800F0D3F90098C5
:10AB3000029908660299C86502998865FFE702993B
:10AB4000542200208854FFE7019803A90870FFE70A
:10AB500003A8007804B080BD60FCFFFF9F030000E5
:10AB600000023E8300F000F00827014081B0009011
:10AB700000980068006C01B07047000080B58AB092
:10AB8000089007A900200870069005900390089887
:10AB9000002804D1FFE709A9012008708AE108987C
:10ABA0003C21405C012801D1FFE7FFE708980069DC
:10ABB000002809D0FFE7089800690121490588426B
:10ABC00001D1FFE7FFE7FFE70898806D00280AD171
:10ABD000FFE7089800F082F908990020C8650899F5
:10ABE00054228854FFE70898006807F0DBFE00282D
:10ABF00016D1FFE70898006807F086FEAF480068A6
:10AC0000AF49FDF7D4FA4000801C0390FFE703989A
:10AC1000002804D0FFE70398401E0390F7E7FFE702
:10AC20000898006807F0BEFE00280DD1FFE70899DC
:10AC3000886D102210438865089AD16D0120014368
:10AC4000D16507A90870FFE70898006807F0B4FE0F
:10AC500004900898806DC006002800D51DE1049876
:10AC6000002800D019E10898806D022108430121D5
:10AC700009028843089988650898006807F082FEF1
:10AC8000002800D0B0E008988168027E920311434A
:10AC9000427ED2031143827E52031143026B531E44
:10ACA0009A4112031143C26811430291C07C00060D
:10ACB000002807D5FFE7089800690121C9078843E4
:10ACC000019003E0012040050190FFE702990198FF
:10ACD000014308982C22805C4000014306980843F9
:10ACE000069008982021405C012817D1FFE70898BA
:10ACF000807E002806D1FFE7069801210904084359
:10AD000006900AE00899886D20221043886508990A
:10AD1000C86D01221043C865FFE7FFE70898406A45
:10AD200000280BD0FFE70898416A072292011140E2
:10AD3000806A0143069808430690FFE70898006878
:10AD4000C068604908400699084308990968C860C6
:10AD500008984168032292071140C06C014305988E
:10AD60000843059008983C21405C012811D1FFE779
:10AD7000089948680322920710400A6C10434A6CF5
:10AD80001043896C08430599084301210843059045
:10AD9000FFE70898006800694B4908400599084397
:10ADA0000899096808610898406803218907884262
:10ADB00019D0FFE70898406801218907884212D01E
:10ADC000FFE7089840680121C90788420BD0FFE7D8
:10ADD0003E4908680F2293049843089A52681A4023
:10ADE00080180860FFE7FFE7089908684A6B0021B0
:10ADF00007F076FE089908688A6B354907F070FEFF
:10AE000008980069002808D1FFE708980168886A57
:10AE10000F22D2431043886218E00898006901218C
:10AE20004905884211D1FFE708980068806A0899AF
:10AE3000C8698000021F1C2002400F20C0439040C0
:10AE40000A6E104309688862FFE7FFE70898006808
:10AE5000002107F079FD0899496B88420CD1FFE782
:10AE600008990020C8650898806D012108430221D7
:10AE70008843089988650FE00898806D1021084381
:10AE80000221884308998865089AD16D0120014301
:10AE9000D16507A90870FFE708E00899886D1022BE
:10AEA0001043886507A901200870FFE7079809A9E2
:10AEB0000870FFE709A800780AB080BD7803002079
:10AEC000400D03000102FEFF02FCFF1F08270140A6
:10AED00004FFFF0781B0009001B0704780B588B0D3
:10AEE0000790002006900590049003900290FFE7E1
:10AEF00012480268012109050A43026000680840FF
:10AF000001900198FFE70320039000200490CF20D8
:10AF100002900520000702A9009100F045FF00996A
:10AF200006200290064800F03FFF00991020029092
:10AF3000044800F039FF08B080BDC0464010024010
:10AF4000000400500008005080B586B004900391C2
:10AF500004984069082803D1FFE70820019013E016
:10AF600004980068C068C007002809D0FFE704996A
:10AF7000886D20221043886505A90120087082E0B1
:10AF800004200190FFE7FFE701F0B2F80290FFE72D
:10AF9000049800680068019908422AD1FFE70398E5
:10AFA000401C002824D0FFE701F0A2F80299401AC3
:10AFB0000399884204D8FFE70398002817D1FFE7D8
:10AFC000049800680068019908420FD1FFE70499CE
:10AFD000886D042210438865FFE7049954220020FD
:10AFE0008854FFE705A9032008704CE0FFE7FFE75E
:10AFF000CEE70499886D01225202104388650498B7
:10B00000006807F0E2FC00282FD0FFE70498807E5C
:10B0100000282AD1FFE7049800680068000700288C
:10B0200022D5FFE70498006807F0C6FC00280FD17E
:10B03000FFE70498016848680C2290434860049830
:10B04000806D0121084309028843049988650AE05C
:10B050000499886D2022104388650499C86D0122E7
:10B060001043C865FFE7FFE7FFE70498007E00286C
:10B0700005D1FFE7049801680C200860FFE705A9E7
:10B0800000200870FFE705A8007806B080BD00002A
:10B0900080B584B002900298006807F08DFC00280B
:10B0A0003ED1FFE7FFE702985421405C012804D11C
:10B0B000FFE703A9022008703AE002995422012018
:10B0C0008854FFE7FFE70298FDF7A2FC014601A8BC
:10B0D0000170007800281BD1FFE70298806D0121E4
:10B0E0000902084314490840029988650299002022
:10B0F000C865029801681C200860FFE70299542285
:10B1000000208854FFE70298006807F09FFC06E0E3
:10B11000FFE70299542200208854FFE7FFE703E08D
:10B1200001A902200870FFE7019803A90870FFE752
:10B1300003A8007804B080BDFEF1FFFF80B584B0A5
:10B140000290FFE702985421405C012804D1FFE7F8
:10B1500003A9022008702DE002995422012088548E
:10B16000FFE7FFE70298FDF706FB014601A8017023
:10B170000078002814D1FFE70298FDF7E7FB0146AD
:10B1800001A801700078002809D1FFE70298806DBE
:10B19000012108430902884302998865FFE7FFE718
:10B1A000FFE70299542200208854FFE7019803A981
:10B1B0000870FFE703A8007804B080BD86B0059052
:10B1C0000491039202930498082806D1FFE702989D
:10B1D000000203990843019005E0029800040399D6
:10B1E00008430190FFE705980068009004980099D3
:10B1F000401820300090019800990860002006B0A7
:10B200007047000010B588B006900591049205982B
:10B210000069012801D1FFE7FFE7059800680428CD
:10B2200001D1FFE7FFE7FFE706984079012804D145
:10B23000FFE707A902200870F0E006990120487195
:10B24000FFE7FFE7069902200871059800680428C7
:10B250006FD1FFE700F04CFF01900498002824D143
:10B26000FFE7FFE706980068406B0004002813D54D
:10B27000FFE700F03DFF0199401A02280BD3FFE7DA
:10B28000069908690822104308610699032008718D
:10B2900007A90870C2E0E5E7012000F0A3FC0598CB
:10B2A000806906990968086423E0FFE7069800684A
:10B2B000406BC00F002813D0FFE700F019FF019981
:10B2C000401A02280BD3FFE70699086908221043A9
:10B2D000086106990320087107A908709EE0E5E758
:10B2E000012000F07FFC0598806906990968486490
:10B2F000FFE706980068806C049B10210B40494AC8
:10B300009A409043059AD2699A401043069A12686F
:10B31000906406980068C06C049A0A40FF2191402E
:10B3200088430599096A9140084306990968C864E9
:10B33000FFE70598006901281BD1FFE70698006820
:10B34000806B03900498102210401F2181400398C5
:10B350008843039005984069029002990498104030
:10B36000814003980843039003980699096888630D
:10B37000FFE706980068C06B039004981022104005
:10B3800007218140039888430390059908688B68DA
:10B390001843C968084302900299049810408140FC
:10B3A000039808430390039806990968C8630499B1
:10B3B0001140012084038C4006990B681968A14351
:10B3C0001960069909680968039104991140164BA0
:10B3D0008B40039999430391059949680291029B17
:10B3E000049911408B400399194303910399069BDB
:10B3F0001B68196004991140C0238B4006990A68A4
:10B4000011689943116006990871FFE706990020B9
:10B410004871FFE707A900200870FFE707A8007838
:10B4200008B010BDFF030000FE0F000080B582B021
:10B4300000900098002804D1FFE701A901200870BE
:10B4400017E000980079002807D1FFE70099002055
:10B450004871009800F012F8FFE700990220087187
:10B46000009900200861009A0121117101A908705A
:10B47000FFE701A8007802B080BD000080B588B069
:10B480000790002006900590049003900290FFE73B
:10B490000B480268012149070A430260006808401E
:10B4A00001900198FFE730200290032003900020D4
:10B4B00004900520000702A900F076FC08B080BDCA
:10B4C0003C10024083B001900091FFE70198407961
:10B4D000012804D1FFE702A90220087047E0019982
:10B4E00001204871FFE7FFE70199022008710098E9
:10B4F0001021084001228240019801680868104329
:10B5000008600098002810D1FFE7019800680068E3
:10B510003E210840022807D1FFE7019801684868EA
:10B52000012210434860FFE715E0019800680068B9
:10B530001F2149040840009A10210A40022191402D
:10B54000884207D1FFE7019801684868022210434A
:10B550004860FFE7FFE7019901200871FFE70199C3
:10B5600000204871FFE702A900200870FFE702A849
:10B57000007803B0704782B000900098002804D192
:10B58000FFE701A9012008704FE000982521405CE9
:10B5900002280DD0FFE700990420C863FFE7009957
:10B5A000242200208854FFE701A9012008703CE014
:10B5B0000098016808680E22904308600098826C29
:10B5C0001168012003029943116000990A6811680B
:10B5D0008143116000994A6C1C231A409040096C09
:10B5E00048600099086DC96C48600098406D00285B
:10B5F0000CD0FFE70098416D0868012212029043C9
:10B6000008600099C86D896D4860FFE700992522A0
:10B6100001208854FFE70099242200208854FFE786
:10B62000FFE701A900200870FFE701A8007802B039
:10B63000704780B582B0019069460020087001987B
:10B640002521405C022807D0FFE701990420C86348
:10B6500069460120087041E00198016808680E22DF
:10B6600090430860019802681168012081431160CD
:10B6700001998A6C116803029943116001994A6C1F
:10B680001C231A409040096C48600199086DC96CF0
:10B6900048600198406D00280CD0FFE70198416D8B
:10B6A000086801221202904308600199C86D896DF3
:10B6B0004860FFE70199252201208854FFE701999E
:10B6C000242200208854FFE70198806B002804D0D2
:10B6D000FFE70198816B8847FFE7FFE7684600783E
:10B6E00002B080BD80B586B004900498002804D1D3
:10B6F000FFE705A90120087076E004980168086852
:10B7000001229043086004980068EE4988420FD8EF
:10B71000FFE7049803900068ED4940181421FCF7F6
:10B7200046FD0399800048640499EA4808640EE0E5
:10B73000049802900068E44940181421FCF737FD92
:10B740000299800048640499E0480864FFE704987F
:10B75000016800200190086004994A6C1C20024096
:10B7600001209040096C48600498FDF78DFE019817
:10B770000499896C08600499086DC96C4860049844
:10B780004068002811D0FFE70498406804280CD8CE
:10B79000FFE70498FDF7B4FE0498416D00200860AF
:10B7A0000499C86D896D4860FFE7049900200090F6
:10B7B0004865049988650499C8650499C862049924
:10B7C000086304994863049988630499C8630499D9
:10B7D00025228854FFE70499242200208854FFE79B
:10B7E00005A900200870FFE705A8007806B080BD15
:10B7F00081B000900098C06B01B0704781B000909C
:10B8000000982521405C01B07047000080B584B0ED
:10B8100003900398006C0068029003980068006829
:10B82000019002980399496C1C221140C8404007BE
:10B83000002826D5FFE701A800784007002820D57A
:10B84000FFE70398006800688006002807D4FFE738
:10B85000039801680868042290430860FFE7039991
:10B860004A6C1C20024004209040096C48600398F8
:10B87000006B002804D0FFE70398016B8847FFE7BF
:10B8800080E002980399496C1C221140C84080074F
:10B89000002840D5FFE701A80078800700283AD5A6
:10B8A000FFE7039800680068800600280BD4FFE7D4
:10B8B0000398016808680A229043086003992522CA
:10B8C00001208854FFE7039800682F49884209D374
:10B8D000FFE70398416C1C200140022088402C495E
:10B8E000086008E00398416C1C2001400220884059
:10B8F00026490860FFE7FFE70399242200208854C7
:10B90000FFE70398C06A002804D0FFE70398C16AE4
:10B910008847FFE735E002980399496C1C221140E3
:10B92000C840000700282AD5FFE701A800780007D3
:10B93000002824D5FFE70398016808680E22904389
:10B940000860039A536C1C20034001200146994073
:10B95000126C51600399C863039925228854FFE74C
:10B960000399242200208854FFE70398406B0028A5
:10B9700004D0FFE70398416B8847FFE700E0FFE74B
:10B98000FFE7FFE704B080BD8100024004000240F1
:10B990000404024080B586B004900498002804D1C5
:10B9A000FFE705A90120087087E004980068454971
:10B9B00088420FD8FFE70498039000684449401874
:10B9C0001421FCF7F4FB0399800048640499414872
:10B9D00008640EE00498029000683B494018142166
:10B9E000FCF7E5FB02998000486404993748086435
:10B9F000FFE704992522022088540498016808680A
:10BA0000354A10400860049801908268C1680A4372
:10BA100001690A4341690A4381690A43C1690A43CA
:10BA2000016A0A4301680868104308600498FDF73A
:10BA30002BFD0498806801218903884204D1FFE727
:10BA4000049900204860FFE7049948687F2210406D
:10BA5000896C08600499086DC96C48600498406856
:10BA6000002811D0FFE70498406804280CD8FFE7AD
:10BA70000498FDF745FD0498416D00200860049985
:10BA8000C86D896D486007E00499002048650499F5
:10BA900088650499C865FFE704990020C863049984
:10BAA000252201208854FFE704992422002088548D
:10BAB000FFE705A900200870FFE705A8007806B099
:10BAC00080BDC04607040240F8FBFDBF00040240F1
:10BAD000F8FFFDBF000002400F80FFFF80B586B079
:10BAE0000490039102920193694600200870FFE7D9
:10BAF00004982421405C012804D1FFE705A9022015
:10BB000008706BE00499242201208854FFE7FFE7C6
:10BB100004982521405C01284FD1FFE70499252294
:10BB20000220885404990020C863049801680868BA
:10BB300001229043086004980399029A019BFDF743
:10BB4000FDFC0498006B002807D0FFE7049801680B
:10BB500008680E22104308600CE004980168086829
:10BB60000422904308600498016808680A22104380
:10BB70000860FFE70498806C0068C003002808D5BF
:10BB8000FFE70498816C08680122120210430860E4
:10BB9000FFE70498406D002808D0FFE70498416D46
:10BBA00008680122120210430860FFE70498016848
:10BBB00008680122104308600CE004998020C863E3
:10BBC000FFE70499242200208854FFE769460120FA
:10BBD0000870FFE7009805A90870FFE705A800783E
:10BBE00006B080BD80B584B0039000F081FA029069
:10BBF000039801900198401C002806D0FFE70948EF
:10BC00000178019840180190FFE7FFE700F070FA13
:10BC10000299401A0199884201D2FFE7F6E704B081
:10BC200080BDC0463C0600208CB00B900A910020DD
:10BC30000990FFE70A980999C840002800D1ACE0B4
:10BC40000A98099A01219140084008900898002814
:10BC500000D19EE00998032188435149405807903C
:10BC600009988007C00E0F2181400798084007906F
:10BC7000079806900B9805210907884203D1FFE732
:10BC8000002005902DE00B984649884203D1FFE73C
:10BC90000120049022E00B98F649884203D1FFE787
:10BCA0000220039017E00B98F349884203D1FFE785
:10BCB000032002900CE00B99F04A04200523009326
:10BCC0009142019001D00098019001980290FFE705
:10BCD00002980390FFE703980490FFE7049805900B
:10BCE000FFE706980599099A9207D20E914088427B
:10BCF00023D1FFE7089AE549086890430860089A4D
:10BD0000E149086890430860089ADE490868904352
:10BD10000860089ADA490868904308600998800723
:10BD2000C10E0F2088400790079B0999032081438B
:10BD3000CE4A885898438850FFE70998400003226C
:10BD4000134683400B99086818430860099948070F
:10BD5000C00E0F2383400B98C90889004118086A58
:10BD60009843086209984000134683400B998868FD
:10BD7000984388600998012383400B994868984349
:10BD800048600998400082400B99C8689043C86099
:10BD9000FFE70998401C09904CE70CB07047C0467B
:10BDA00060180240000400508BB00A9009910020F6
:10BDB0000890FFE7099800680899C840002800D15A
:10BDC00052E109980068089A0121914008400790C3
:10BDD0000798002800D143E10998406803210840F2
:10BDE000012807D0FFE7099840680321084002288E
:10BDF0002CD1FFE70A98806806900898400003213C
:10BE000081400698884306900998C16808984000C8
:10BE1000814006980843069006980A9988600A9817
:10BE20004068069008980121814006988843069052
:10BE30000998406810210840010908988140069837
:10BE40000843069006980A994860FFE709984068F9
:10BE500003210840032816D0FFE70A98C06806901F
:10BE6000089840000321814006988843069009986D
:10BE7000816808984000814006980843069006981B
:10BE80000A99C860FFE70998406803210840022822
:10BE900020D1FFE70A980899C90889004018006A6C
:10BEA000069008984007C00E0F21814006988843ED
:10BEB00006900998016908984007C00E81400698CD
:10BEC0000843069006980A99089AD20892008918A1
:10BED0000862FFE70A98006806900898410003206E
:10BEE00002468A40069991430691099949680140A2
:10BEF00008984000814006980843069006980A99E1
:10BF00000860099880798007002800D1A7E0089888
:10BF10000321884355494058069008988007C00E71
:10BF20000F2181400698884306900A980521090749
:10BF3000884203D1FFE7002005902DE00A984C4984
:10BF4000884203D1FFE70120049022E00A98494982
:10BF5000884203D1FFE70220039017E00A98464980
:10BF6000884203D1FFE7032002900CE00A99434A7C
:10BF70000420052300939142019001D00098019084
:10BF800001980290FFE702980390FFE7039804905E
:10BF9000FFE704980590FFE7059908988007C00E11
:10BFA0008140069808430690069808990322914319
:10BFB0002E4A8850324800680690079906988843B0
:10BFC000069009988079C006002805D5FFE70799F3
:10BFD000069808430690FFE7069829490860294813
:10BFE000006806900799069888430690099880791A
:10BFF0008006002805D5FFE70799069808430690B4
:10C00000FFE706981F4908601F48006806900799D7
:10C01000069888430690099880798007002805D5FE
:10C02000FFE70799069808430690FFE70698164928
:10C03000086016480068069007990698884306909D
:10C0400009988079C007002805D0FFE7079906986E
:10C0500008430690FFE706980C490860FFE7FFE7F2
:10C060000898401C0890A5E60BB070476018024085
:10C070000004005000080050000C00500010005058
:10C080000018024004180240841802408018024040
:10C0900084B0009101460098039102A9088003989A
:10C0A00000690988084204D0FFE701A9012008704F
:10C0B00003E001A900200870FFE701A8007804B0A0
:10C0C000704783B0029001A8018068460270007832
:10C0D000002805D0FFE701A800880299886104E0E4
:10C0E00001A8008802998862FFE703B0704700004A
:10C0F000014800687047C046446D002010B583B009
:10C100000190009101984121405C202839D1FFE73E
:10C11000FFE701984021405C012804D1FFE702A914
:10C120000220087031E00199402201208854FFE785
:10C13000FFE701994122242088540198016808688A
:10C140000123984308600198016808681C03A04314
:10C150000860009C01980168086820430860019805
:10C160000168086818430860019920208854FFE797
:10C170000199402200208854FFE702A9002008709E
:10C1800003E002A902200870FFE702A8007803B0CC
:10C1900010BD84B00290019102984121405C20289A
:10C1A0003FD1FFE7FFE702984021405C012804D11E
:10C1B000FFE703A90220087037E00299402201201E
:10C1C0008854FFE7FFE7029941222420885402980F
:10C1D00001680868012398430860029800680068B5
:10C1E000009000980F2109028843009001980102F5
:10C1F0000098084300900098029909680860029826
:10C200000168086818430860029920208854FFE7F5
:10C210000299402200208854FFE703A900200870FB
:10C2200003E003A902200870FFE703A8007804B028
:10C23000704781B0009001B0704783B0029001A8B0
:10C2400001706846028003B0704780B584B00290E8
:10C250000298002804D1FFE703A90120087022E01A
:10C2600002994122019224208854029801680868AA
:10C27000012290430860029800F052FD019A029951
:10C280000020486402998854029908630299422266
:10C290008854FFE70299402200208854FFE703A951
:10C2A00000200870FFE703A8007804B080BD81B0CB
:10C2B000009001B0704781B0009000984121405C2F
:10C2C00001B0704780B582B000900098002804D17A
:10C2D000FFE701A90120087074E000984121405C4B
:10C2E000002808D1FFE700994022002088540098D8
:10C2F00000F02EFDFFE70099412224208854009889
:10C3000001680868012290430860009948680F237B
:10C310001B06984309680861009801688868D20381
:10C32000904388600098C068012808D1FFE7009911
:10C3300088680122D20310430968886007E00099E9
:10C34000886821229202104309688860FFE70098FC
:10C35000C068022806D1FFE7009801680120C002EA
:10C360004860FFE7009801684868184A1043486031
:10C3700000980168C8680122D3039843C8600099F7
:10C3800008694B6918438B691B0218430968C86028
:10C390000099C8690B6A1843096808600098016829
:10C3A000086810430860009900204864009A4123FF
:10C3B0002021D1540099086300994222885401A990
:10C3C0000870FFE701A8007802B080BD008000027D
:10C3D00010B58CB00A9009A801800892079300203C
:10C3E00005900A984121405C202800D015E10A9868
:10C3F0000068806980B2C00B012804D1FFE70BA957
:10C40000022008700DE1FFE70A984021405C0128F6
:10C4100004D1FFE70BA90220087002E10A9940222B
:10C4200001208854FFE7FFE70A994122242088541D
:10C430000A9900204864FFE70A98C068012808D1DB
:10C44000FFE709A800887949084079494018029017
:10C4500008E009A80088754908400521C90240186C
:10C460000290FFE702980A9909684860FFF740FECA
:10C4700006900A980068806920210840400904A9B4
:10C4800008700A980068806910210840000903A913
:10C490000870FFE704A8017800200029019006D168
:10C4A000FFE703A80078414248410190FFE7019867
:10C4B000C007002835D0FFE70798401C00281FD090
:10C4C000FFE7FFF715FE0699401A0799884204D83E
:10C4D000FFE70798002812D1FFE70A9841212022A0
:10C4E00042540A99486C10434864FFE70A99402275
:10C4F00000208854FFE70BA90120087091E0FFE7B6
:10C500000A980068806920210840400904A9087041
:10C510000A980068806910210840000903A9087082
:10C52000B8E70A98006880691021084000090028CF
:10C5300020D1FFE70A98079B06990091202100224D
:10C5400005F081FB002804D0FFE70BA9012008704B
:10C5500067E00A9801682020C8610A99412288543E
:10C56000FFE70A99402200208854FFE70BA900202A
:10C57000087056E00A98079B069900912021002236
:10C5800005F061FB002804D0FFE70BA9012008702B
:10C5900047E00A9801681020C8610A9801682020C5
:10C5A000C861FFE70598089988421BD1FFE70A9800
:10C5B0000168486801229203104348600A98079B6B
:10C5C000069900912021002205F03DFB002804D0AF
:10C5D000FFE70BA90120087023E00A9801682020DA
:10C5E000C861FFE70598401C0590FFE7059808998A
:10C5F000884200D220E70A984121202242540A9919
:10C60000486C10434864FFE70A9940220020885490
:10C61000FFE70BA90120087003E00BA902200870B6
:10C62000FFE70BA800780CB010BDC046FF03000068
:10C630000020000281B0009001B0704781B00090EE
:10C6400001B0704781B0009001B0704781B0009098
:10C6500001B0704781B0009001B07047B0B58AB0AA
:10C66000044610980F980E9D089407AC218006A9E7
:10C670000A8005A90B8004A9088008984121405C24
:10C68000202800D012E10E98002805D0FFE704A86A
:10C690000088002807D1FFE7089A01204102516471
:10C6A00009A9087006E1FFE708984021405C0128CD
:10C6B00004D1FFE709A902200870FBE00899402295
:10C6C00001208854FFE7FFE7FFF712FD0390089869
:10C6D000039900910122D103192305F0B4FA00282F
:10C6E00004D0FFE709A901200870E3E0089941227E
:10C6F000222088540899422240208854089900201A
:10C7000048640E99089A51620499089A51850899CB
:10C710004863089807A9098806AA128805AB1B88F0
:10C72000109C039D0195009404F044FF00280AD05A
:10C73000FFE7FFE70899402200208854FFE709A996
:10C7400001200870B6E00898408D000A00280FD03C
:10C75000FFE70899FF200885089807A9098828227B
:10C76000825C564B009301231B0605F019FA0FE07B
:10C770000898408D08990885089807A909882822F3
:10C78000825C4E4B009301235B0605F009FAFFE73C
:10C79000FFE70898109B039900910421002205F0FF
:10C7A00052FA002804D0FFE709A90120087081E0AF
:10C7B00008980068406A0899496A08700899486AA8
:10C7C000401C48620899088D401E08850899488DCC
:10C7D000401E48850898408D00283AD0FFE7089809
:10C7E000008D002835D1FFE70898109B0399009130
:10C7F0008021002205F027FA002804D0FFE709A9CC
:10C800000120087056E00898408D000A00280FD0DB
:10C81000FFE70899FF200885089807A909882822BA
:10C82000825C0023009301231B0605F0B9F90FE099
:10C830000898408D08990885089807A90988282232
:10C84000825C0023009301235B0605F0A9F9FFE752
:10C85000FFE7FFE70898408D00289AD1FFE7089886
:10C860001099039A05F036FA002804D0FFE709A9C9
:10C87000012008701EE0089801682020C86108990E
:10C880000A6851680E4B194051600899412288543A
:10C890000899422200208854FFE70899402200208E
:10C8A0008854FFE709A90020087003E009A90220C5
:10C8B0000870FFE709A800780AB0B0BD0024008026
:10C8C00000E800FEB0B588B004460D980C9D0694B3
:10C8D00005AC218004A90A8003A90B8002A9088065
:10C8E00006984121405C202800D0D9E00C9800280F
:10C8F00005D0FFE702A80088002807D1FFE7069AC5
:10C9000001204102516407A90870CDE00698006833
:10C91000806980B2C00B012804D1FFE707A902207B
:10C920000870C1E0FFE706984021405C012804D16F
:10C93000FFE707A902200870B6E00699402201200F
:10C940008854FFE7FFE70699412222208854069980
:10C950004222402088540699002048640C98069989
:10C96000486202980699488506995148C862069916
:10C970005048486305A800880699C8640698408D09
:10C98000000A002804D0FFE70699FF20088504E08C
:10C990000698408D06990885FFE703A800880128BE
:10C9A0000AD1FFE704A80078069909688862069909
:10C9B0000020C043086508E004A84178069A126880
:10C9C0009162007806990865FFE70698C06B002819
:10C9D0001AD0FFE70698C16B3748C8620698C16B4A
:10C9E000364848630698C16B002008630699C96BF6
:10C9F0008863069BD86B196824310C9A1B8DFFF74E
:10CA00006DF801A9087016E006994122202088548B
:10CA100006994222002088540699486C80221043CF
:10CA20004864FFE70699402200208854FFE707A9E1
:10CA30000120087038E001A80078002815D1FFE730
:10CA4000069805A9098803AA12781D4B00930023B4
:10CA500005F0A6F8FFE70699402200208854FFE77A
:10CA60000698012103F06CFD16E006994122202072
:10CA7000885406994222002088540699486C102256
:10CA800010434864FFE70699402200208854FFE7DE
:10CA900007A90120087007E007A90020087003E03B
:10CAA00007A902200870FFE707A8007808B0B0BD0A
:10CAB0000000FFFF41130108ED030108C70301084F
:10CAC00000200080B0B58AB0044610980F980E9DE3
:10CAD000089407AC218006A90A8005A90B8004A947
:10CAE000088008984121405C202800D00EE10E9873
:10CAF000002805D0FFE704A80088002807D1FFE739
:10CB0000089A01204102516409A9087002E1FFE777
:10CB100008984021405C012804D1FFE709A90220C0
:10CB20000870F7E00899402201208854FFE7FFE7EA
:10CB3000FFF7DEFA03900898039900910122D103D0
:10CB4000192305F080F8002804D0FFE709A9012087
:10CB50000870DFE008994122212088540899422278
:10CB6000402088540899002048640E99089A516220
:10CB70000499089A518508994863089807A9098873
:10CB800006AA128805AB1B88109C039D0195009492
:10CB900004F06CFD00280AD0FFE7FFE70899402267
:10CBA00000208854FFE709A901200870B2E0089826
:10CBB000408D000A00280FD0FFE70899FF20088564
:10CBC000089807A909882822825C00230093012382
:10CBD0001B0604F0E5FF0FE00898408D08990885D2
:10CBE000089807A909882822825C00230093012362
:10CBF0005B0604F0D5FFFFE7FFE708981099039A5A
:10CC000005F0AEF8002804D0FFE709A9012008705C
:10CC100080E00899486A0078096888620899486A3B
:10CC2000401C48620899488D401E48850899088D27
:10CC3000401E08850898408D00283AD0FFE70898E4
:10CC4000008D002835D1FFE70898109B03990091CB
:10CC50008021002204F0F7FF002804D0FFE709A993
:10CC60000120087056E00898408D000A00280FD077
:10CC7000FFE70899FF200885089807A90988282256
:10CC8000825C0023009301231B0604F089FF0FE060
:10CC90000898408D08990885089807A909882822CE
:10CCA000825C0023009301235B0604F079FFFFE719
:10CCB000FFE7FFE70898408D00289ED1FFE708981E
:10CCC0001099039A05F006F8002804D0FFE709A997
:10CCD000012008701EE0089801682020C8610899AA
:10CCE0000A6851680D4B19405160089941228854D7
:10CCF0000899422200208854FFE70899402200202A
:10CD00008854FFE709A90020087003E009A9022060
:10CD10000870FFE709A800780AB0B0BD00E800FE7F
:10CD200080B582B001902149086801225205104364
:10CD300008600868904308601D4800904021FEF795
:10CD400073FF00988021FEF76FFF02B080BDC046E0
:10CD500080B588B00790002006900590049003905D
:10CD60000290FFE75D480268012149050A4302601D
:10CD70000068084001900198FFE70C49086801220B
:10CD8000520510430860086890430860C020029074
:10CD900012200390002004900320059006200690A6
:10CDA000034802A9FFF700F808B080BD2C1002402C
:10CDB0000004005081B0009001B0704781B0009035
:10CDC00001B070473148027802490868801808604D
:10CDD0007047C046446D002080B582B001A9002094
:10CDE00008700B4A116801231B021943116000F0FF
:10CDF00011F8002804D0FFE701A90120087002E023
:10CE000000F04AF8FFE701A8007802B080BDC046F4
:10CE10000020024080B584B0039002A90020087071
:10CE20001A480078002829D0FFE7194800680190C7
:10CE3000164801787D20C000FBF7B9F9014601983A
:10CE4000FBF7B5F902F046FB002812D1FFE7039883
:10CE5000032809D8FFE703990022D04300F056F8D1
:10CE600003980C49086003E002A901200870FFE75D
:10CE700003E002A901200870FFE703E002A90120F6
:10CE80000870FFE702A8007804B080BD3C060020CF
:10CE9000780300204006002080B582B0FFE70E48EE
:10CEA000026801210A43026000680840019001986D
:10CEB000FFE7FFE709480268012109070A4302600A
:10CEC0000068084000900098FFE70320400202F04D
:10CED000F3FA02B080BDC046401002403C10024050
:10CEE00080B582B0014601A801700021405610F0C3
:10CEF0005DF802B080BD80B582B0014601A8017026
:10CF00000021405610F06CF802B080BD80B584B0AE
:10CF1000034603A803700291019200214056029932
:10CF200010F088F804B080BD10F004F982B00190D0
:10CF30000198006800900198BF21890001234350A7
:10CF40000199BD20820000208854009A516D194338
:10CF50005165009A516D02231943516502B0704723
:10CF600082B001906846017002B0704710B585B07C
:10CF7000049003A8018002A90A800193008800069A
:10CF800000280BD5FFE7049803A90A8807210A4067
:10CF90002821514340183C3000900AE0049803A92E
:10CFA0000A882821514340185F21890040180090C9
:10CFB000FFE702A80088002807D1FFE700990020BA
:10CFC0008872019800998880FFE7002005B010BDA5
:10CFD00080B584B0019101460198039102A90870BF
:10CFE000039AC12080001058097828234B43D21897
:10CFF000126D0AF0C3FB04B080BD80B584B001910E
:10D0000001460198039102A90870039AC12080008B
:10D010001058097828234B43D21819231B01D258E2
:10D020000AF084FC04B080BD80B584B0029001A8F1
:10D0300001700078000600280ED5FFE7029801A9CC
:10D040000A7807210A402821514340183C300090BB
:10D050000099012048700FE0029801A90A78072181
:10D060000A402821514340185F2189004018009050
:10D07000009900204870FFE701A8007807210840C8
:10D0800000990870FFE70298AF218900405C0128F1
:10D0900004D1FFE703A90220087016E00299AF202F
:10D0A000820001208854FFE7FFE70298006800999A
:10D0B0000BF0D2FDFFE70299AF20820000208854D8
:10D0C000FFE703A900200870FFE703A8007804B079
:10D0D00080BD80B584B0029001A8017000780F2156
:10D0E000084002994968884204D9FFE703A9012052
:10D0F00008704FE001A80078000600280ED5FFE771
:10D10000029801A90A7807210A40282151434018B2
:10D110003C3000900099012048700FE0029801A96E
:10D120000A7807210A402821514340185F218900CD
:10D1300040180090009900204870FFE700990020F7
:10D14000887001A800780721084000990870FFE75F
:10D150000298AF218900405C012804D1FFE703A9B0
:10D160000220087016E00299AF2082000120885446
:10D17000FFE7FFE70298006800990BF053FEFFE716
:10D180000299AF20820000208854FFE703A9002005
:10D190000870FFE703A8007804B080BD10B588B020
:10D1A000069005A8017004A90A8003A90B7002AAC1
:10D1B000002111700078000600280ED5FFE70698C0
:10D1C00005A90A7807210A402821514340183C301C
:10D1D00001900199012048700FE0069805A90A788E
:10D1E00007210A402821514340185F218900401837
:10D1F0000190019900204870FFE705A800780721F9
:10D2000008400199087004A80088019908610398F2
:10D210000199C87001984078002804D0FFE701996F
:10D2200008788881FFE703A80078022804D1FFE787
:10D2300001990020C872FFE7FFE70698AF21890037
:10D24000405C012804D1FFE707A90220087016E01E
:10D250000699AF20820001208854FFE7FFE7069877
:10D26000006801990BF05EFBFFE70699AF20820092
:10D2700000208854FFE7029807A90870FFE707A875
:10D28000007808B010BD10B586B0059004A80170F4
:10D2900003920293059904780722144028236343DC
:10D2A000C9185F239B00C91801910399019B59611B
:10D2B0000299019B9961019B0021D961019B5970E1
:10D2C00001781140019A117000784007002806D1BA
:10D2D000FFE70598006801990BF078FE05E00598D6
:10D2E000006801990BF072FEFFE7002006B010BD48
:10D2F00080B584B0029001A8017000780721084031
:10D3000002994968884204D9FFE703A901200870FF
:10D310004DE001A80078000600280ED5FFE702982E
:10D3200001A90A7807210A402821514340183C30BE
:10D3300000900099012048700DE0029801A90A7838
:10D340002821514340185F2189004018009000991E
:10D3500000204870FFE700990120887001A800783C
:10D360000721084000990870FFE70298AF21890063
:10D37000405C012804D1FFE703A90220087016E0F1
:10D380000299AF20820001208854FFE7FFE702984E
:10D39000006800990BF0DAFDFFE70299AF208200E8
:10D3A00000208854FFE703A900200870FFE703A8C6
:10D3B000007804B080BD10B586B0059004A8017057
:10D3C00003920293059904780722144028236343AB
:10D3D000C9183C3101910399019B59610299019B44
:10D3E0009961019B242401211955029B019C236210
:10D3F000019C0023E361019B597001781140019A5F
:10D40000117000784007002806D1FFE705980068F2
:10D4100001990BF0DBFD05E00598006801990BF020
:10D42000D5FDFFE7002006B010BD000080B582B03A
:10D430000190019800680BF059FF00906E48006859
:10D440004007002801D4FFE7D3E068464078000693
:10D45000002804D5FFE7019806F068F9C9E068469E
:10D460004078400700280ED5FFE701980168486C16
:10D47000694A10404864019800F002FA01980021BE
:10D4800000F03DFAB5E0684640784006002807D530
:10D49000FFE701980168486C5E4A10404864A8E0C4
:10D4A000684640788006002807D5FFE701980168A4
:10D4B000486C574A104048649BE068464078C00674
:10D4C000002826D5FFE701980168086C04229043E4
:10D4D000086401980168086C082290430864019868
:10D4E000BD218900405C012809D1FFE70198BD21D9
:10D4F0008A00002181540198FFF732FDFFE701986F
:10D5000000F0DCF901980168486C404A104048641A
:10D510006FE0684640780007002816D5FFE70198BD
:10D520000168086C08221043086401980168486C7F
:10D53000354A1040486401980168086C0422104381
:10D540000864019800F048FA53E068460078000645
:10D55000002831D5FFE701980168486C294A10403E
:10D5600048640198BD218900405C00281FD1FFE775
:10D5700001980168086C042210430864019801684E
:10D58000086C0822104308640198BD218A0001211B
:10D59000815401980068406DF02210408008019A83
:10D5A0005F23DB00D0500198FFF7DAFC03E001981D
:10D5B00000F012FAFFE71CE0684640788007002878
:10D5C0000AD5FFE701980168486C0D4A104048648D
:10D5D000019800F089F90CE068464078C0070028FF
:10D5E00007D0FFE701980168486C044A104048647E
:10D5F000FFE702B080BDC046A0000140FFFE000072
:10D60000FFFD00007FFF0000FFF70000FFEF0000BC
:10D61000FFDF0000FFBF0000FFFB0000F0B595B08A
:10D6200013901398002804D1FFE714A90120087073
:10D63000E1E013987249405C002809D1FFE7139993
:10D64000AF20820000208854139800F0DBF8FFE739
:10D6500013996B4A03208854139900201190086194
:10D66000139800680BF0D2FB119812A90870FFE71D
:10D6700012A8007813994968884237D2FFE71398B7
:10D6800012AB1C7828221146614341183D24012029
:10D690000855187813991446444309193C24085531
:10D6A00018781399144644430919482408531398C9
:10D6B0001C781146614341183F24002008551399F6
:10D6C0001D7814466C430919C86413991D781446D3
:10D6D0006C430919086513991B785A4389184865E2
:10D6E000FFE71298401C12A90870C1E712A9002098
:10D6F0000870FFE712A8007813994968884238D269
:10D70000FFE7139812AB1C78282211466143411899
:10D71000FF2425467E35002048551978139D16466E
:10D720004E43AD195F26B600A95513991E781546CC
:10D73000754349198034085513991D7814466C4374
:10D7400009196324A400085113991D7814466C43E9
:10D75000091919242401085113991B785A4389186F
:10D76000652292008850FFE71298401C12A90870A9
:10D77000C0E713980A9001681091C36882684168F5
:10D78000046945698669C769006A0F900A98406A0A
:10D790000E900A98806A0D900A98C06A0C900A98B8
:10D7A000006B0B900A98406B09900B9808900C98AE
:10D7B00007900D9806900E9805900F980490109879
:10D7C00003970296019500940BF0D3FA139938222F
:10D7D0000020885413990A4A012088541398406AFB
:10D7E000012804D1FFE71398FFF7A0FBFFE714A976
:10D7F00000200870FFE714A8007815B0F0BDC046FF
:10D80000BD02000080B5A4B0239010A84C21FAF707
:10D81000B6FC01A83C21FAF7B2FC2398006816492F
:10D82000884227D1FFE7202001900120810508913F
:10D83000000610900020219010A800F06BF901A8BC
:10D8400000F060FD002803D0FFE709F091FBFFE73F
:10D85000FFE70A480268012149030A4302600068A1
:10D86000084000900098FFE7082000221146FFF7CB
:10D870004DFBFFE724B080BD005C00403C1002403F
:10D8800080B584B0039002A9012008700398C06895
:10D89000022803D0FFE709F06BFBFFE70398C121E3
:10D8A00089000191405802A909780AF07EFA01998D
:10D8B000039840580AF0E6F904B080BD80B582B004
:10D8C00001900198006A002806D0FFE755490868D2
:10D8D000062290430860FFE70198C1218900405863
:10D8E0000AF02AFA02B080BD80B582B0019001989A
:10D8F000C121890040580AF033FA02B080BD80B5DA
:10D9000084B0029001A80170FFE70298AF2189005E
:10D91000405C012804D1FFE703A9022008701BE046
:10D920000299AF20820001208854FFE7FFE70198A9
:10D930000299382288540298006801A909780BF0EE
:10D940006EFDFFE70299AF20820000208854FFE7B8
:10D9500003A900200870FFE703A8007804B080BD89
:10D9600080B582B001900199C12080000858B12291
:10D97000920089180AF046FA02B080BD80B582B0E4
:10D980000090FFE70098AF218900405C012804D196
:10D99000FFE701A90220087019E00099AF2082007A
:10D9A00001208854FFE7FFE7009800680BF0FCFBBC
:10D9B000009800680BF0D2F9FFE70099AF208200D1
:10D9C00000208854FFE701A900200870FFE701A8A4
:10D9D000007802B080BD000080B582B0019001984F
:10D9E000C121890040580AF09BFA0198006A00287A
:10D9F00013D0FFE70198C121890040580849405CD5
:10DA000003280AD1FFE70749086804229043086009
:10DA10000868022210430860FFE702B080BDC046DC
:10DA20009D02000010ED00E080B584B002901A491C
:10DA30000868032252029043029A10430860029839
:10DA40000121490288421ED1FFE7144801680620DF
:10DA500048431349FAF7ABFB401C0190FFE711481C
:10DA60000068400500280DD5FFE70198002804D084
:10DA7000FFE70198401E019003E003A9032008700E
:10DA800005E0ECE7FFE703A900200870FFE703A823
:10DA9000007804B080BDC0460070004078030020CC
:10DAA00040420F001470004082B00190164908688F
:10DAB000012212041043086008689043086001992D
:10DAC00008684A6810438968084300900198C16853
:10DAD00000980843009001980069010400980843E9
